{
  "address": "0xF204e0d82A05562dB215D8f7f48aD092d47aeD2F",
  "abi": [
    {
      "inputs": [
        {
          "internalType": "string",
          "name": "_name",
          "type": "string"
        },
        {
          "internalType": "string",
          "name": "_symbol",
          "type": "string"
        }
      ],
      "stateMutability": "nonpayable",
      "type": "constructor"
    },
    {
      "anonymous": false,
      "inputs": [
        {
          "indexed": true,
          "internalType": "address",
          "name": "owner",
          "type": "address"
        },
        {
          "indexed": true,
          "internalType": "address",
          "name": "approved",
          "type": "address"
        },
        {
          "indexed": true,
          "internalType": "uint256",
          "name": "tokenId",
          "type": "uint256"
        }
      ],
      "name": "Approval",
      "type": "event"
    },
    {
      "anonymous": false,
      "inputs": [
        {
          "indexed": true,
          "internalType": "address",
          "name": "owner",
          "type": "address"
        },
        {
          "indexed": true,
          "internalType": "address",
          "name": "operator",
          "type": "address"
        },
        {
          "indexed": false,
          "internalType": "bool",
          "name": "approved",
          "type": "bool"
        }
      ],
      "name": "ApprovalForAll",
      "type": "event"
    },
    {
      "anonymous": false,
      "inputs": [
        {
          "indexed": true,
          "internalType": "bytes32",
          "name": "role",
          "type": "bytes32"
        },
        {
          "indexed": true,
          "internalType": "bytes32",
          "name": "previousAdminRole",
          "type": "bytes32"
        },
        {
          "indexed": true,
          "internalType": "bytes32",
          "name": "newAdminRole",
          "type": "bytes32"
        }
      ],
      "name": "RoleAdminChanged",
      "type": "event"
    },
    {
      "anonymous": false,
      "inputs": [
        {
          "indexed": true,
          "internalType": "bytes32",
          "name": "role",
          "type": "bytes32"
        },
        {
          "indexed": true,
          "internalType": "address",
          "name": "account",
          "type": "address"
        },
        {
          "indexed": true,
          "internalType": "address",
          "name": "sender",
          "type": "address"
        }
      ],
      "name": "RoleGranted",
      "type": "event"
    },
    {
      "anonymous": false,
      "inputs": [
        {
          "indexed": true,
          "internalType": "bytes32",
          "name": "role",
          "type": "bytes32"
        },
        {
          "indexed": true,
          "internalType": "address",
          "name": "account",
          "type": "address"
        },
        {
          "indexed": true,
          "internalType": "address",
          "name": "sender",
          "type": "address"
        }
      ],
      "name": "RoleRevoked",
      "type": "event"
    },
    {
      "anonymous": false,
      "inputs": [
        {
          "indexed": true,
          "internalType": "address",
          "name": "from",
          "type": "address"
        },
        {
          "indexed": true,
          "internalType": "address",
          "name": "to",
          "type": "address"
        },
        {
          "indexed": true,
          "internalType": "uint256",
          "name": "tokenId",
          "type": "uint256"
        }
      ],
      "name": "Transfer",
      "type": "event"
    },
    {
      "inputs": [],
      "name": "BURNER_ROLE",
      "outputs": [
        {
          "internalType": "bytes32",
          "name": "",
          "type": "bytes32"
        }
      ],
      "stateMutability": "view",
      "type": "function"
    },
    {
      "inputs": [],
      "name": "DEFAULT_ADMIN_ROLE",
      "outputs": [
        {
          "internalType": "bytes32",
          "name": "",
          "type": "bytes32"
        }
      ],
      "stateMutability": "view",
      "type": "function"
    },
    {
      "inputs": [],
      "name": "MINTER_ROLE",
      "outputs": [
        {
          "internalType": "bytes32",
          "name": "",
          "type": "bytes32"
        }
      ],
      "stateMutability": "view",
      "type": "function"
    },
    {
      "inputs": [
        {
          "internalType": "address",
          "name": "to",
          "type": "address"
        },
        {
          "internalType": "uint256",
          "name": "tokenId",
          "type": "uint256"
        }
      ],
      "name": "approve",
      "outputs": [],
      "stateMutability": "nonpayable",
      "type": "function"
    },
    {
      "inputs": [
        {
          "internalType": "address",
          "name": "owner",
          "type": "address"
        }
      ],
      "name": "balanceOf",
      "outputs": [
        {
          "internalType": "uint256",
          "name": "",
          "type": "uint256"
        }
      ],
      "stateMutability": "view",
      "type": "function"
    },
    {
      "inputs": [
        {
          "internalType": "uint256",
          "name": "_tokenId",
          "type": "uint256"
        }
      ],
      "name": "burn",
      "outputs": [],
      "stateMutability": "nonpayable",
      "type": "function"
    },
    {
      "inputs": [
        {
          "internalType": "uint256",
          "name": "tokenId",
          "type": "uint256"
        }
      ],
      "name": "getApproved",
      "outputs": [
        {
          "internalType": "address",
          "name": "",
          "type": "address"
        }
      ],
      "stateMutability": "view",
      "type": "function"
    },
    {
      "inputs": [
        {
          "internalType": "bytes32",
          "name": "role",
          "type": "bytes32"
        }
      ],
      "name": "getRoleAdmin",
      "outputs": [
        {
          "internalType": "bytes32",
          "name": "",
          "type": "bytes32"
        }
      ],
      "stateMutability": "view",
      "type": "function"
    },
    {
      "inputs": [
        {
          "internalType": "bytes32",
          "name": "role",
          "type": "bytes32"
        },
        {
          "internalType": "address",
          "name": "account",
          "type": "address"
        }
      ],
      "name": "grantRole",
      "outputs": [],
      "stateMutability": "nonpayable",
      "type": "function"
    },
    {
      "inputs": [
        {
          "internalType": "bytes32",
          "name": "role",
          "type": "bytes32"
        },
        {
          "internalType": "address",
          "name": "account",
          "type": "address"
        }
      ],
      "name": "hasRole",
      "outputs": [
        {
          "internalType": "bool",
          "name": "",
          "type": "bool"
        }
      ],
      "stateMutability": "view",
      "type": "function"
    },
    {
      "inputs": [
        {
          "internalType": "address",
          "name": "owner",
          "type": "address"
        },
        {
          "internalType": "address",
          "name": "operator",
          "type": "address"
        }
      ],
      "name": "isApprovedForAll",
      "outputs": [
        {
          "internalType": "bool",
          "name": "",
          "type": "bool"
        }
      ],
      "stateMutability": "view",
      "type": "function"
    },
    {
      "inputs": [
        {
          "internalType": "address",
          "name": "reciever",
          "type": "address"
        },
        {
          "internalType": "string",
          "name": "_tokenURI",
          "type": "string"
        }
      ],
      "name": "mint",
      "outputs": [
        {
          "internalType": "uint256",
          "name": "",
          "type": "uint256"
        }
      ],
      "stateMutability": "nonpayable",
      "type": "function"
    },
    {
      "inputs": [],
      "name": "name",
      "outputs": [
        {
          "internalType": "string",
          "name": "",
          "type": "string"
        }
      ],
      "stateMutability": "view",
      "type": "function"
    },
    {
      "inputs": [
        {
          "internalType": "uint256",
          "name": "tokenId",
          "type": "uint256"
        }
      ],
      "name": "ownerOf",
      "outputs": [
        {
          "internalType": "address",
          "name": "",
          "type": "address"
        }
      ],
      "stateMutability": "view",
      "type": "function"
    },
    {
      "inputs": [
        {
          "internalType": "bytes32",
          "name": "role",
          "type": "bytes32"
        },
        {
          "internalType": "address",
          "name": "account",
          "type": "address"
        }
      ],
      "name": "renounceRole",
      "outputs": [],
      "stateMutability": "nonpayable",
      "type": "function"
    },
    {
      "inputs": [
        {
          "internalType": "bytes32",
          "name": "role",
          "type": "bytes32"
        },
        {
          "internalType": "address",
          "name": "account",
          "type": "address"
        }
      ],
      "name": "revokeRole",
      "outputs": [],
      "stateMutability": "nonpayable",
      "type": "function"
    },
    {
      "inputs": [
        {
          "internalType": "address",
          "name": "from",
          "type": "address"
        },
        {
          "internalType": "address",
          "name": "to",
          "type": "address"
        },
        {
          "internalType": "uint256",
          "name": "tokenId",
          "type": "uint256"
        }
      ],
      "name": "safeTransferFrom",
      "outputs": [],
      "stateMutability": "nonpayable",
      "type": "function"
    },
    {
      "inputs": [
        {
          "internalType": "address",
          "name": "from",
          "type": "address"
        },
        {
          "internalType": "address",
          "name": "to",
          "type": "address"
        },
        {
          "internalType": "uint256",
          "name": "tokenId",
          "type": "uint256"
        },
        {
          "internalType": "bytes",
          "name": "_data",
          "type": "bytes"
        }
      ],
      "name": "safeTransferFrom",
      "outputs": [],
      "stateMutability": "nonpayable",
      "type": "function"
    },
    {
      "inputs": [
        {
          "internalType": "address",
          "name": "operator",
          "type": "address"
        },
        {
          "internalType": "bool",
          "name": "approved",
          "type": "bool"
        }
      ],
      "name": "setApprovalForAll",
      "outputs": [],
      "stateMutability": "nonpayable",
      "type": "function"
    },
    {
      "inputs": [
        {
          "internalType": "bytes4",
          "name": "interfaceId",
          "type": "bytes4"
        }
      ],
      "name": "supportsInterface",
      "outputs": [
        {
          "internalType": "bool",
          "name": "",
          "type": "bool"
        }
      ],
      "stateMutability": "view",
      "type": "function"
    },
    {
      "inputs": [],
      "name": "symbol",
      "outputs": [
        {
          "internalType": "string",
          "name": "",
          "type": "string"
        }
      ],
      "stateMutability": "view",
      "type": "function"
    },
    {
      "inputs": [
        {
          "internalType": "uint256",
          "name": "index",
          "type": "uint256"
        }
      ],
      "name": "tokenByIndex",
      "outputs": [
        {
          "internalType": "uint256",
          "name": "",
          "type": "uint256"
        }
      ],
      "stateMutability": "view",
      "type": "function"
    },
    {
      "inputs": [
        {
          "internalType": "address",
          "name": "owner",
          "type": "address"
        },
        {
          "internalType": "uint256",
          "name": "index",
          "type": "uint256"
        }
      ],
      "name": "tokenOfOwnerByIndex",
      "outputs": [
        {
          "internalType": "uint256",
          "name": "",
          "type": "uint256"
        }
      ],
      "stateMutability": "view",
      "type": "function"
    },
    {
      "inputs": [
        {
          "internalType": "uint256",
          "name": "tokenId",
          "type": "uint256"
        }
      ],
      "name": "tokenURI",
      "outputs": [
        {
          "internalType": "string",
          "name": "",
          "type": "string"
        }
      ],
      "stateMutability": "view",
      "type": "function"
    },
    {
      "inputs": [],
      "name": "totalSupply",
      "outputs": [
        {
          "internalType": "uint256",
          "name": "",
          "type": "uint256"
        }
      ],
      "stateMutability": "view",
      "type": "function"
    },
    {
      "inputs": [
        {
          "internalType": "address",
          "name": "from",
          "type": "address"
        },
        {
          "internalType": "address",
          "name": "to",
          "type": "address"
        },
        {
          "internalType": "uint256",
          "name": "tokenId",
          "type": "uint256"
        }
      ],
      "name": "transferFrom",
      "outputs": [],
      "stateMutability": "nonpayable",
      "type": "function"
    }
  ],
  "transactionHash": "0x05aa8b0794098c8f0c5049eff17444545e3c6ebf97f6c072f58a239997a4dee4",
  "args": [
    "NFT TEST TOKEN",
    "NFTT"
  ],
  "numDeployments": 1,
  "solcInputHash": "9bc33c83bce5a181d42be7064ebe8f14",
  "bytecode": "0x60806040523480156200001157600080fd5b50604051620026e3380380620026e38339810160408190526200003491620002e2565b8151829082906200004d90600090602085019062000189565b5080516200006390600190602084019062000189565b506200007591506000905033620000d5565b620000a17f9f2df0fed2c77648de5860a4cc508cd0818c85b8b8a1ab4ceeef8d981c8956a633620000d5565b620000cd7f3c11d16cbaffd01df69ce1c404f6340ee057498f5f00246190ea54220576a84833620000d5565b50506200039c565b620000e18282620000e5565b5050565b6000828152600b602090815260408083206001600160a01b038516845290915290205460ff16620000e1576000828152600b602090815260408083206001600160a01b03851684529091529020805460ff19166001179055620001453390565b6001600160a01b0316816001600160a01b0316837f2f8788117e7eff1d82e926ec794901d17c78024a50270940304540a733656f0d60405160405180910390a45050565b828054620001979062000349565b90600052602060002090601f016020900481019282620001bb576000855562000206565b82601f10620001d657805160ff191683800117855562000206565b8280016001018555821562000206579182015b8281111562000206578251825591602001919060010190620001e9565b506200021492915062000218565b5090565b5b8082111562000214576000815560010162000219565b600082601f83011262000240578081fd5b81516001600160401b03808211156200025d576200025d62000386565b604051601f8301601f19908116603f0116810190828211818310171562000288576200028862000386565b81604052838152602092508683858801011115620002a4578485fd5b8491505b83821015620002c75785820183015181830184015290820190620002a8565b83821115620002d857848385830101525b9695505050505050565b60008060408385031215620002f5578182fd5b82516001600160401b03808211156200030c578384fd5b6200031a868387016200022f565b9350602085015191508082111562000330578283fd5b506200033f858286016200022f565b9150509250929050565b600181811c908216806200035e57607f821691505b602082108114156200038057634e487b7160e01b600052602260045260246000fd5b50919050565b634e487b7160e01b600052604160045260246000fd5b61233780620003ac6000396000f3fe608060405234801561001057600080fd5b506004361061018e5760003560e01c80634f6ccce7116100de578063a22cb46511610097578063d0def52111610071578063d0def52114610373578063d539139314610386578063d547741f146103ad578063e985e9c5146103c057600080fd5b8063a22cb4651461033a578063b88d4fde1461034d578063c87b56dd1461036057600080fd5b80634f6ccce7146102de5780636352211e146102f157806370a082311461030457806391d148541461031757806395d89b411461032a578063a217fddf1461033257600080fd5b8063248a9ca31161014b5780632f745c59116101255780632f745c591461029257806336568abe146102a557806342842e0e146102b857806342966c68146102cb57600080fd5b8063248a9ca314610235578063282c51f3146102585780632f2ff15d1461027f57600080fd5b806301ffc9a71461019357806306fdde03146101bb578063081812fc146101d0578063095ea7b3146101fb57806318160ddd1461021057806323b872dd14610222575b600080fd5b6101a66101a1366004611f9f565b6103fc565b60405190151581526020015b60405180910390f35b6101c361040d565b6040516101b291906120e4565b6101e36101de366004611f65565b61049f565b6040516001600160a01b0390911681526020016101b2565b61020e610209366004611f3c565b61052c565b005b6009545b6040519081526020016101b2565b61020e610230366004611def565b610642565b610214610243366004611f65565b6000908152600b602052604090206001015490565b6102147f3c11d16cbaffd01df69ce1c404f6340ee057498f5f00246190ea54220576a84881565b61020e61028d366004611f7d565b610673565b6102146102a0366004611f3c565b610699565b61020e6102b3366004611f7d565b61072f565b61020e6102c6366004611def565b6107ad565b61020e6102d9366004611f65565b6107c8565b6102146102ec366004611f65565b6107fc565b6101e36102ff366004611f65565b61089d565b610214610312366004611da3565b610914565b6101a6610325366004611f7d565b61099b565b6101c36109c6565b610214600081565b61020e610348366004611ea3565b6109d5565b61020e61035b366004611e2a565b6109e0565b6101c361036e366004611f65565b610a18565b610214610381366004611edd565b610a23565b6102147f9f2df0fed2c77648de5860a4cc508cd0818c85b8b8a1ab4ceeef8d981c8956a681565b61020e6103bb366004611f7d565b610a87565b6101a66103ce366004611dbd565b6001600160a01b03918216600090815260056020908152604080832093909416825291909152205460ff1690565b600061040782610aad565b92915050565b60606000805461041c9061223f565b80601f01602080910402602001604051908101604052809291908181526020018280546104489061223f565b80156104955780601f1061046a57610100808354040283529160200191610495565b820191906000526020600020905b81548152906001019060200180831161047857829003601f168201915b5050505050905090565b60006104aa82610ad2565b6105105760405162461bcd60e51b815260206004820152602c60248201527f4552433732313a20617070726f76656420717565727920666f72206e6f6e657860448201526b34b9ba32b73a103a37b5b2b760a11b60648201526084015b60405180910390fd5b506000908152600460205260409020546001600160a01b031690565b60006105378261089d565b9050806001600160a01b0316836001600160a01b031614156105a55760405162461bcd60e51b815260206004820152602160248201527f4552433732313a20617070726f76616c20746f2063757272656e74206f776e656044820152603960f91b6064820152608401610507565b336001600160a01b03821614806105c157506105c181336103ce565b6106335760405162461bcd60e51b815260206004820152603860248201527f4552433732313a20617070726f76652063616c6c6572206973206e6f74206f7760448201527f6e6572206e6f7220617070726f76656420666f7220616c6c00000000000000006064820152608401610507565b61063d8383610aef565b505050565b61064c3382610b5d565b6106685760405162461bcd60e51b815260040161050790612149565b61063d838383610c43565b6000828152600b602052604090206001015461068f8133610dea565b61063d8383610e4e565b60006106a483610914565b82106107065760405162461bcd60e51b815260206004820152602b60248201527f455243373231456e756d657261626c653a206f776e657220696e646578206f7560448201526a74206f6620626f756e647360a81b6064820152608401610507565b506001600160a01b03919091166000908152600760209081526040808320938352929052205490565b6001600160a01b038116331461079f5760405162461bcd60e51b815260206004820152602f60248201527f416363657373436f6e74726f6c3a2063616e206f6e6c792072656e6f756e636560448201526e103937b632b9903337b91039b2b63360891b6064820152608401610507565b6107a98282610ed4565b5050565b61063d838383604051806020016040528060008152506109e0565b7f3c11d16cbaffd01df69ce1c404f6340ee057498f5f00246190ea54220576a8486107f38133610dea565b6107a982610f3b565b600061080760095490565b821061086a5760405162461bcd60e51b815260206004820152602c60248201527f455243373231456e756d657261626c653a20676c6f62616c20696e646578206f60448201526b7574206f6620626f756e647360a01b6064820152608401610507565b6009828154811061088b57634e487b7160e01b600052603260045260246000fd5b90600052602060002001549050919050565b6000818152600260205260408120546001600160a01b0316806104075760405162461bcd60e51b815260206004820152602960248201527f4552433732313a206f776e657220717565727920666f72206e6f6e657869737460448201526832b73a103a37b5b2b760b91b6064820152608401610507565b60006001600160a01b03821661097f5760405162461bcd60e51b815260206004820152602a60248201527f4552433732313a2062616c616e636520717565727920666f7220746865207a65604482015269726f206164647265737360b01b6064820152608401610507565b506001600160a01b031660009081526003602052604090205490565b6000918252600b602090815260408084206001600160a01b0393909316845291905290205460ff1690565b60606001805461041c9061223f565b6107a9338383610f47565b6109ea3383610b5d565b610a065760405162461bcd60e51b815260040161050790612149565b610a1284848484611016565b50505050565b606061040782611049565b60007f9f2df0fed2c77648de5860a4cc508cd0818c85b8b8a1ab4ceeef8d981c8956a6610a508133610dea565b610a5e600c80546001019055565b6000610a69600c5490565b9050610a7585826111b8565b610a7f81856112f7565b949350505050565b6000828152600b6020526040902060010154610aa38133610dea565b61063d8383610ed4565b60006001600160e01b03198216637965db0b60e01b1480610407575061040782611382565b6000908152600260205260409020546001600160a01b0316151590565b600081815260046020526040902080546001600160a01b0319166001600160a01b0384169081179091558190610b248261089d565b6001600160a01b03167f8c5be1e5ebec7d5bd14f71427d1e84f3dd0314c0f7b2291e5b200ac8c7c3b92560405160405180910390a45050565b6000610b6882610ad2565b610bc95760405162461bcd60e51b815260206004820152602c60248201527f4552433732313a206f70657261746f7220717565727920666f72206e6f6e657860448201526b34b9ba32b73a103a37b5b2b760a11b6064820152608401610507565b6000610bd48361089d565b9050806001600160a01b0316846001600160a01b03161480610c0f5750836001600160a01b0316610c048461049f565b6001600160a01b0316145b80610a7f57506001600160a01b0380821660009081526005602090815260408083209388168352929052205460ff16610a7f565b826001600160a01b0316610c568261089d565b6001600160a01b031614610cba5760405162461bcd60e51b815260206004820152602560248201527f4552433732313a207472616e736665722066726f6d20696e636f72726563742060448201526437bbb732b960d91b6064820152608401610507565b6001600160a01b038216610d1c5760405162461bcd60e51b8152602060048201526024808201527f4552433732313a207472616e7366657220746f20746865207a65726f206164646044820152637265737360e01b6064820152608401610507565b610d278383836113a7565b610d32600082610aef565b6001600160a01b0383166000908152600360205260408120805460019290610d5b9084906121e5565b90915550506001600160a01b0382166000908152600360205260408120805460019290610d8990849061219a565b909155505060008181526002602052604080822080546001600160a01b0319166001600160a01b0386811691821790925591518493918716917fddf252ad1be2c89b69c2b068fc378daa952ba7f163c4a11628f55a4df523b3ef91a4505050565b610df4828261099b565b6107a957610e0c816001600160a01b031660146113b2565b610e178360206113b2565b604051602001610e28929190612032565b60408051601f198184030181529082905262461bcd60e51b8252610507916004016120e4565b610e58828261099b565b6107a9576000828152600b602090815260408083206001600160a01b03851684529091529020805460ff19166001179055610e903390565b6001600160a01b0316816001600160a01b0316837f2f8788117e7eff1d82e926ec794901d17c78024a50270940304540a733656f0d60405160405180910390a45050565b610ede828261099b565b156107a9576000828152600b602090815260408083206001600160a01b0385168085529252808320805460ff1916905551339285917ff6391f5c32d9c69d2a47ea670b442974b53935d1edc7fd64eb21e047a839171b9190a45050565b610f448161159b565b50565b816001600160a01b0316836001600160a01b03161415610fa95760405162461bcd60e51b815260206004820152601960248201527f4552433732313a20617070726f766520746f2063616c6c6572000000000000006044820152606401610507565b6001600160a01b03838116600081815260056020908152604080832094871680845294825291829020805460ff191686151590811790915591519182527f17307eab39ab6107e8899845ad3d59bd9653f200f220920489ca2b5937696c31910160405180910390a3505050565b611021848484610c43565b61102d848484846115db565b610a125760405162461bcd60e51b8152600401610507906120f7565b606061105482610ad2565b6110ba5760405162461bcd60e51b815260206004820152603160248201527f45524337323155524953746f726167653a2055524920717565727920666f72206044820152703737b732bc34b9ba32b73a103a37b5b2b760791b6064820152608401610507565b600082815260066020526040812080546110d39061223f565b80601f01602080910402602001604051908101604052809291908181526020018280546110ff9061223f565b801561114c5780601f106111215761010080835404028352916020019161114c565b820191906000526020600020905b81548152906001019060200180831161112f57829003601f168201915b50505050509050600061116a60408051602081019091526000815290565b905080516000141561117d575092915050565b8151156111af578082604051602001611197929190612003565b60405160208183030381529060405292505050919050565b610a7f846116e8565b6001600160a01b03821661120e5760405162461bcd60e51b815260206004820181905260248201527f4552433732313a206d696e7420746f20746865207a65726f20616464726573736044820152606401610507565b61121781610ad2565b156112645760405162461bcd60e51b815260206004820152601c60248201527f4552433732313a20746f6b656e20616c7265616479206d696e746564000000006044820152606401610507565b611270600083836113a7565b6001600160a01b038216600090815260036020526040812080546001929061129990849061219a565b909155505060008181526002602052604080822080546001600160a01b0319166001600160a01b03861690811790915590518392907fddf252ad1be2c89b69c2b068fc378daa952ba7f163c4a11628f55a4df523b3ef908290a45050565b61130082610ad2565b6113635760405162461bcd60e51b815260206004820152602e60248201527f45524337323155524953746f726167653a2055524920736574206f66206e6f6e60448201526d32bc34b9ba32b73a103a37b5b2b760911b6064820152608401610507565b6000828152600660209081526040909120825161063d92840190611c42565b60006001600160e01b0319821663780e9d6360e01b14806104075750610407826117bf565b61063d83838361180f565b606060006113c18360026121c6565b6113cc90600261219a565b67ffffffffffffffff8111156113f257634e487b7160e01b600052604160045260246000fd5b6040519080825280601f01601f19166020018201604052801561141c576020820181803683370190505b509050600360fc1b8160008151811061144557634e487b7160e01b600052603260045260246000fd5b60200101906001600160f81b031916908160001a905350600f60fb1b8160018151811061148257634e487b7160e01b600052603260045260246000fd5b60200101906001600160f81b031916908160001a90535060006114a68460026121c6565b6114b190600161219a565b90505b6001811115611545576f181899199a1a9b1b9c1cb0b131b232b360811b85600f16601081106114f357634e487b7160e01b600052603260045260246000fd5b1a60f81b82828151811061151757634e487b7160e01b600052603260045260246000fd5b60200101906001600160f81b031916908160001a90535060049490941c9361153e81612228565b90506114b4565b5083156115945760405162461bcd60e51b815260206004820181905260248201527f537472696e67733a20686578206c656e67746820696e73756666696369656e746044820152606401610507565b9392505050565b6115a4816118c7565b600081815260066020526040902080546115bd9061223f565b159050610f44576000818152600660205260408120610f4491611cc6565b60006001600160a01b0384163b156116dd57604051630a85bd0160e11b81526001600160a01b0385169063150b7a029061161f9033908990889088906004016120a7565b602060405180830381600087803b15801561163957600080fd5b505af1925050508015611669575060408051601f3d908101601f1916820190925261166691810190611fbb565b60015b6116c3573d808015611697576040519150601f19603f3d011682016040523d82523d6000602084013e61169c565b606091505b5080516116bb5760405162461bcd60e51b8152600401610507906120f7565b805181602001fd5b6001600160e01b031916630a85bd0160e11b149050610a7f565b506001949350505050565b60606116f382610ad2565b6117575760405162461bcd60e51b815260206004820152602f60248201527f4552433732314d657461646174613a2055524920717565727920666f72206e6f60448201526e3732bc34b9ba32b73a103a37b5b2b760891b6064820152608401610507565b600061176e60408051602081019091526000815290565b9050600081511161178e5760405180602001604052806000815250611594565b806117988461196e565b6040516020016117a9929190612003565b6040516020818303038152906040529392505050565b60006001600160e01b031982166380ac58cd60e01b14806117f057506001600160e01b03198216635b5e139f60e01b145b8061040757506301ffc9a760e01b6001600160e01b0319831614610407565b6001600160a01b03831661186a5761186581600980546000838152600a60205260408120829055600182018355919091527f6e1540171b6c0c960b71a7020d9f60077f6af931a8bbf590da0223dacf75c7af0155565b61188d565b816001600160a01b0316836001600160a01b03161461188d5761188d8382611a88565b6001600160a01b0382166118a45761063d81611b25565b826001600160a01b0316826001600160a01b03161461063d5761063d8282611bfe565b60006118d28261089d565b90506118e0816000846113a7565b6118eb600083610aef565b6001600160a01b03811660009081526003602052604081208054600192906119149084906121e5565b909155505060008281526002602052604080822080546001600160a01b0319169055518391906001600160a01b038416907fddf252ad1be2c89b69c2b068fc378daa952ba7f163c4a11628f55a4df523b3ef908390a45050565b6060816119925750506040805180820190915260018152600360fc1b602082015290565b8160005b81156119bc57806119a68161227a565b91506119b59050600a836121b2565b9150611996565b60008167ffffffffffffffff8111156119e557634e487b7160e01b600052604160045260246000fd5b6040519080825280601f01601f191660200182016040528015611a0f576020820181803683370190505b5090505b8415610a7f57611a246001836121e5565b9150611a31600a86612295565b611a3c90603061219a565b60f81b818381518110611a5f57634e487b7160e01b600052603260045260246000fd5b60200101906001600160f81b031916908160001a905350611a81600a866121b2565b9450611a13565b60006001611a9584610914565b611a9f91906121e5565b600083815260086020526040902054909150808214611af2576001600160a01b03841660009081526007602090815260408083208584528252808320548484528184208190558352600890915290208190555b5060009182526008602090815260408084208490556001600160a01b039094168352600781528383209183525290812055565b600954600090611b37906001906121e5565b6000838152600a602052604081205460098054939450909284908110611b6d57634e487b7160e01b600052603260045260246000fd5b906000526020600020015490508060098381548110611b9c57634e487b7160e01b600052603260045260246000fd5b6000918252602080832090910192909255828152600a90915260408082208490558582528120556009805480611be257634e487b7160e01b600052603160045260246000fd5b6001900381819060005260206000200160009055905550505050565b6000611c0983610914565b6001600160a01b039093166000908152600760209081526040808320868452825280832085905593825260089052919091209190915550565b828054611c4e9061223f565b90600052602060002090601f016020900481019282611c705760008555611cb6565b82601f10611c8957805160ff1916838001178555611cb6565b82800160010185558215611cb6579182015b82811115611cb6578251825591602001919060010190611c9b565b50611cc2929150611cfc565b5090565b508054611cd29061223f565b6000825580601f10611ce2575050565b601f016020900490600052602060002090810190610f4491905b5b80821115611cc25760008155600101611cfd565b600067ffffffffffffffff80841115611d2c57611d2c6122d5565b604051601f8501601f19908116603f01168101908282118183101715611d5457611d546122d5565b81604052809350858152868686011115611d6d57600080fd5b858560208301376000602087830101525050509392505050565b80356001600160a01b0381168114611d9e57600080fd5b919050565b600060208284031215611db4578081fd5b61159482611d87565b60008060408385031215611dcf578081fd5b611dd883611d87565b9150611de660208401611d87565b90509250929050565b600080600060608486031215611e03578081fd5b611e0c84611d87565b9250611e1a60208501611d87565b9150604084013590509250925092565b60008060008060808587031215611e3f578081fd5b611e4885611d87565b9350611e5660208601611d87565b925060408501359150606085013567ffffffffffffffff811115611e78578182fd5b8501601f81018713611e88578182fd5b611e9787823560208401611d11565b91505092959194509250565b60008060408385031215611eb5578182fd5b611ebe83611d87565b915060208301358015158114611ed2578182fd5b809150509250929050565b60008060408385031215611eef578182fd5b611ef883611d87565b9150602083013567ffffffffffffffff811115611f13578182fd5b8301601f81018513611f23578182fd5b611f3285823560208401611d11565b9150509250929050565b60008060408385031215611f4e578182fd5b611f5783611d87565b946020939093013593505050565b600060208284031215611f76578081fd5b5035919050565b60008060408385031215611f8f578182fd5b82359150611de660208401611d87565b600060208284031215611fb0578081fd5b8135611594816122eb565b600060208284031215611fcc578081fd5b8151611594816122eb565b60008151808452611fef8160208601602086016121fc565b601f01601f19169290920160200192915050565b600083516120158184602088016121fc565b8351908301906120298183602088016121fc565b01949350505050565b7f416363657373436f6e74726f6c3a206163636f756e742000000000000000000081526000835161206a8160178501602088016121fc565b7001034b99036b4b9b9b4b733903937b6329607d1b601791840191820152835161209b8160288401602088016121fc565b01602801949350505050565b6001600160a01b03858116825284166020820152604081018390526080606082018190526000906120da90830184611fd7565b9695505050505050565b6020815260006115946020830184611fd7565b60208082526032908201527f4552433732313a207472616e7366657220746f206e6f6e20455243373231526560408201527131b2b4bb32b91034b6b83632b6b2b73a32b960711b606082015260800190565b60208082526031908201527f4552433732313a207472616e736665722063616c6c6572206973206e6f74206f6040820152701ddb995c881b9bdc88185c1c1c9bdd9959607a1b606082015260800190565b600082198211156121ad576121ad6122a9565b500190565b6000826121c1576121c16122bf565b500490565b60008160001904831182151516156121e0576121e06122a9565b500290565b6000828210156121f7576121f76122a9565b500390565b60005b838110156122175781810151838201526020016121ff565b83811115610a125750506000910152565b600081612237576122376122a9565b506000190190565b600181811c9082168061225357607f821691505b6020821081141561227457634e487b7160e01b600052602260045260246000fd5b50919050565b600060001982141561228e5761228e6122a9565b5060010190565b6000826122a4576122a46122bf565b500690565b634e487b7160e01b600052601160045260246000fd5b634e487b7160e01b600052601260045260246000fd5b634e487b7160e01b600052604160045260246000fd5b6001600160e01b031981168114610f4457600080fdfea2646970667358221220a1697690eaeb1345809ac66fe9df4c1dbe4bbf89d00df01ff6b166977736c7a564736f6c63430008040033",
  "devdoc": {
    "kind": "dev",
    "methods": {
      "approve(address,uint256)": {
        "details": "See {IERC721-approve}."
      },
      "balanceOf(address)": {
        "details": "See {IERC721-balanceOf}."
      },
      "getApproved(uint256)": {
        "details": "See {IERC721-getApproved}."
      },
      "getRoleAdmin(bytes32)": {
        "details": "Returns the admin role that controls `role`. See {grantRole} and {revokeRole}. To change a role's admin, use {_setRoleAdmin}."
      },
      "grantRole(bytes32,address)": {
        "details": "Grants `role` to `account`. If `account` had not been already granted `role`, emits a {RoleGranted} event. Requirements: - the caller must have ``role``'s admin role."
      },
      "hasRole(bytes32,address)": {
        "details": "Returns `true` if `account` has been granted `role`."
      },
      "isApprovedForAll(address,address)": {
        "details": "See {IERC721-isApprovedForAll}."
      },
      "name()": {
        "details": "See {IERC721Metadata-name}."
      },
      "ownerOf(uint256)": {
        "details": "See {IERC721-ownerOf}."
      },
      "renounceRole(bytes32,address)": {
        "details": "Revokes `role` from the calling account. Roles are often managed via {grantRole} and {revokeRole}: this function's purpose is to provide a mechanism for accounts to lose their privileges if they are compromised (such as when a trusted device is misplaced). If the calling account had been revoked `role`, emits a {RoleRevoked} event. Requirements: - the caller must be `account`."
      },
      "revokeRole(bytes32,address)": {
        "details": "Revokes `role` from `account`. If `account` had been granted `role`, emits a {RoleRevoked} event. Requirements: - the caller must have ``role``'s admin role."
      },
      "safeTransferFrom(address,address,uint256)": {
        "details": "See {IERC721-safeTransferFrom}."
      },
      "safeTransferFrom(address,address,uint256,bytes)": {
        "details": "See {IERC721-safeTransferFrom}."
      },
      "setApprovalForAll(address,bool)": {
        "details": "See {IERC721-setApprovalForAll}."
      },
      "symbol()": {
        "details": "See {IERC721Metadata-symbol}."
      },
      "tokenByIndex(uint256)": {
        "details": "See {IERC721Enumerable-tokenByIndex}."
      },
      "tokenOfOwnerByIndex(address,uint256)": {
        "details": "See {IERC721Enumerable-tokenOfOwnerByIndex}."
      },
      "totalSupply()": {
        "details": "See {IERC721Enumerable-totalSupply}."
      },
      "transferFrom(address,address,uint256)": {
        "details": "See {IERC721-transferFrom}."
      }
    },
    "version": 1
  },
  "userdoc": {
    "kind": "user",
    "methods": {},
    "version": 1
  },
  "storageLayout": {
    "storage": [
      {
        "astId": 407,
        "contract": "contracts/BasicERC721NFT.sol:BasicERC721NFT",
        "label": "_name",
        "offset": 0,
        "slot": "0",
        "type": "t_string_storage"
      },
      {
        "astId": 409,
        "contract": "contracts/BasicERC721NFT.sol:BasicERC721NFT",
        "label": "_symbol",
        "offset": 0,
        "slot": "1",
        "type": "t_string_storage"
      },
      {
        "astId": 413,
        "contract": "contracts/BasicERC721NFT.sol:BasicERC721NFT",
        "label": "_owners",
        "offset": 0,
        "slot": "2",
        "type": "t_mapping(t_uint256,t_address)"
      },
      {
        "astId": 417,
        "contract": "contracts/BasicERC721NFT.sol:BasicERC721NFT",
        "label": "_balances",
        "offset": 0,
        "slot": "3",
        "type": "t_mapping(t_address,t_uint256)"
      },
      {
        "astId": 421,
        "contract": "contracts/BasicERC721NFT.sol:BasicERC721NFT",
        "label": "_tokenApprovals",
        "offset": 0,
        "slot": "4",
        "type": "t_mapping(t_uint256,t_address)"
      },
      {
        "astId": 427,
        "contract": "contracts/BasicERC721NFT.sol:BasicERC721NFT",
        "label": "_operatorApprovals",
        "offset": 0,
        "slot": "5",
        "type": "t_mapping(t_address,t_mapping(t_address,t_bool))"
      },
      {
        "astId": 1732,
        "contract": "contracts/BasicERC721NFT.sol:BasicERC721NFT",
        "label": "_tokenURIs",
        "offset": 0,
        "slot": "6",
        "type": "t_mapping(t_uint256,t_string_storage)"
      },
      {
        "astId": 1396,
        "contract": "contracts/BasicERC721NFT.sol:BasicERC721NFT",
        "label": "_ownedTokens",
        "offset": 0,
        "slot": "7",
        "type": "t_mapping(t_address,t_mapping(t_uint256,t_uint256))"
      },
      {
        "astId": 1400,
        "contract": "contracts/BasicERC721NFT.sol:BasicERC721NFT",
        "label": "_ownedTokensIndex",
        "offset": 0,
        "slot": "8",
        "type": "t_mapping(t_uint256,t_uint256)"
      },
      {
        "astId": 1403,
        "contract": "contracts/BasicERC721NFT.sol:BasicERC721NFT",
        "label": "_allTokens",
        "offset": 0,
        "slot": "9",
        "type": "t_array(t_uint256)dyn_storage"
      },
      {
        "astId": 1407,
        "contract": "contracts/BasicERC721NFT.sol:BasicERC721NFT",
        "label": "_allTokensIndex",
        "offset": 0,
        "slot": "10",
        "type": "t_mapping(t_uint256,t_uint256)"
      },
      {
        "astId": 24,
        "contract": "contracts/BasicERC721NFT.sol:BasicERC721NFT",
        "label": "_roles",
        "offset": 0,
        "slot": "11",
        "type": "t_mapping(t_bytes32,t_struct(RoleData)19_storage)"
      },
      {
        "astId": 2555,
        "contract": "contracts/BasicERC721NFT.sol:BasicERC721NFT",
        "label": "_tokenIds",
        "offset": 0,
        "slot": "12",
        "type": "t_struct(Counter)2228_storage"
      }
    ],
    "types": {
      "t_address": {
        "encoding": "inplace",
        "label": "address",
        "numberOfBytes": "20"
      },
      "t_array(t_uint256)dyn_storage": {
        "base": "t_uint256",
        "encoding": "dynamic_array",
        "label": "uint256[]",
        "numberOfBytes": "32"
      },
      "t_bool": {
        "encoding": "inplace",
        "label": "bool",
        "numberOfBytes": "1"
      },
      "t_bytes32": {
        "encoding": "inplace",
        "label": "bytes32",
        "numberOfBytes": "32"
      },
      "t_mapping(t_address,t_bool)": {
        "encoding": "mapping",
        "key": "t_address",
        "label": "mapping(address => bool)",
        "numberOfBytes": "32",
        "value": "t_bool"
      },
      "t_mapping(t_address,t_mapping(t_address,t_bool))": {
        "encoding": "mapping",
        "key": "t_address",
        "label": "mapping(address => mapping(address => bool))",
        "numberOfBytes": "32",
        "value": "t_mapping(t_address,t_bool)"
      },
      "t_mapping(t_address,t_mapping(t_uint256,t_uint256))": {
        "encoding": "mapping",
        "key": "t_address",
        "label": "mapping(address => mapping(uint256 => uint256))",
        "numberOfBytes": "32",
        "value": "t_mapping(t_uint256,t_uint256)"
      },
      "t_mapping(t_address,t_uint256)": {
        "encoding": "mapping",
        "key": "t_address",
        "label": "mapping(address => uint256)",
        "numberOfBytes": "32",
        "value": "t_uint256"
      },
      "t_mapping(t_bytes32,t_struct(RoleData)19_storage)": {
        "encoding": "mapping",
        "key": "t_bytes32",
        "label": "mapping(bytes32 => struct AccessControl.RoleData)",
        "numberOfBytes": "32",
        "value": "t_struct(RoleData)19_storage"
      },
      "t_mapping(t_uint256,t_address)": {
        "encoding": "mapping",
        "key": "t_uint256",
        "label": "mapping(uint256 => address)",
        "numberOfBytes": "32",
        "value": "t_address"
      },
      "t_mapping(t_uint256,t_string_storage)": {
        "encoding": "mapping",
        "key": "t_uint256",
        "label": "mapping(uint256 => string)",
        "numberOfBytes": "32",
        "value": "t_string_storage"
      },
      "t_mapping(t_uint256,t_uint256)": {
        "encoding": "mapping",
        "key": "t_uint256",
        "label": "mapping(uint256 => uint256)",
        "numberOfBytes": "32",
        "value": "t_uint256"
      },
      "t_string_storage": {
        "encoding": "bytes",
        "label": "string",
        "numberOfBytes": "32"
      },
      "t_struct(Counter)2228_storage": {
        "encoding": "inplace",
        "label": "struct Counters.Counter",
        "members": [
          {
            "astId": 2227,
            "contract": "contracts/BasicERC721NFT.sol:BasicERC721NFT",
            "label": "_value",
            "offset": 0,
            "slot": "0",
            "type": "t_uint256"
          }
        ],
        "numberOfBytes": "32"
      },
      "t_struct(RoleData)19_storage": {
        "encoding": "inplace",
        "label": "struct AccessControl.RoleData",
        "members": [
          {
            "astId": 16,
            "contract": "contracts/BasicERC721NFT.sol:BasicERC721NFT",
            "label": "members",
            "offset": 0,
            "slot": "0",
            "type": "t_mapping(t_address,t_bool)"
          },
          {
            "astId": 18,
            "contract": "contracts/BasicERC721NFT.sol:BasicERC721NFT",
            "label": "adminRole",
            "offset": 0,
            "slot": "1",
            "type": "t_bytes32"
          }
        ],
        "numberOfBytes": "64"
      },
      "t_uint256": {
        "encoding": "inplace",
        "label": "uint256",
        "numberOfBytes": "32"
      }
    }
  }
}